:100000000C9456000C946B000C946B000C946B00D9
:100010000C946B000C946B000C946B000C946B00B4
:100020000C946B000C946B000C946B000C946B00A4
:100030000C946B000C946B000C946B000C946B0094
:100040000C946B000C946B000C946B000C946B0084
:100050000C946B000C946B000C946B000C946B0074
:100060000C946B000C946B000C946B000C946B0064
:100070000C946B000C946B000C946B000C946B0054
:100080000C946B000C946B000C946B000C946B0044
:100090000C946B000C946B000C946B000C946B0034
:1000A0000C946B000C946B000C946B0011241FBE1D
:1000B000CFEFCDBFDFE2DEBF10E2A0E0B0E2EAEBBF
:1000C000F5E002C005900D92A430B107D9F70E9467
:1000D000C1020C94DB020C940000E0E4F6E08081A5
:1000E0008C608083E4E4F6E08081846080830895FE
:1000F000E0E4F6E08081806B8083E0EEF8E08081D0
:1001000080658083808180688083E4E4F6E080817C
:100110008061808308958093E308E2EEF8E08081B7
:100120008823ECF70895CF93DF93C4E4D6E0988159
:10013000977E988300C000C000000E948B008881D9
:1001400080618883DF91CF910895CF93DF93C4E4DA
:10015000D6E0988198609883000098819F7E98836C
:100160000E948B00888180618883DF91CF91089500
:10017000CF92DF92EF92FF920F931F93CF93DF9373
:10018000D82EC92E162F072FF42EE52EC22FD32FCF
:100190008AE20E9493008C2D0E94A5008D2D0E9462
:1001A000A5008E2D0E94A5008F2D0E94A5008BE238
:1001B0000E949300802F0E94A500812F0E94A5001D
:1001C0008D2F0E94A5008C2F0E94A5008CE20E941A
:1001D0009300DF91CF911F910F91FF90EF90DF90EF
:1001E000CF900895E4E4F6E08081846080838FE41A
:1001F00093EC0197F1F700C0000080818B7F808332
:100200008FE493EC0197F1F700C0000080818460D7
:1002100080838FE493EC0197F1F700C0000008950C
:100220000E946D000E9478000E94F20081E00E940E
:1002300093002FE38DE093E0215080409040E1F760
:1002400000C000008BEC0E94930089E30E94A5008F
:100250008CE20E94A50080E00E94A50084E30E9439
:10026000A50082E00E94A5008FEC0E94930080E030
:100270000E94A50081EC0E94A50080E30E94A500D9
:1002800088EE0E94930085E80E94A50080E00E940D
:10029000A50088E70E94A5008AEE0E94930080E0F6
:1002A0000E94A50080E00E94A5008DEE0E949300B0
:1002B00084E60E94A50083E00E94A50082E10E94DE
:1002C000A50081E80E94A50087EF0E94930080E2CC
:1002D0000E94A50080EC0E94930083E20E94A5008A
:1002E00081EC0E94930080E10E94A50085EC0E94B1
:1002F00093008EE30E94A50088E20E94A50087EC8F
:100300000E94930086E80E94A50086E30E94930065
:1003100088E40E94A5008AE30E94930085E50E947C
:10032000A50081EB0E94930080E00E94A50088E177
:100330000E94A50086EB0E94930088E00E94A50021
:1003400082E80E94A50087E20E94A50082EF0E9439
:10035000930080E00E94A50086E20E94930081E065
:100360000E94A50080EE0E9493008FE00E94A500ED
:1003700081E30E94A5008BE20E94A5008CE00E9410
:10038000A5008EE00E94A50088E00E94A5008EE4F2
:100390000E94A50081EF0E94A50087E30E94A500AE
:1003A00087E00E94A50080E10E94A50083E00E94F2
:1003B000A5008EE00E94A50089E00E94A50080E0D3
:1003C0000E94A50081EE0E94930080E00E94A5009B
:1003D0008EE00E94A50084E10E94A50083E00E94B7
:1003E000A50081E10E94A50087E00E94A50081E3AD
:1003F0000E94A50081EC0E94A50088E40E94A5004F
:1004000088E00E94A5008FE00E94A5008CE00E9479
:10041000A50081E30E94A50086E30E94A5008FE06D
:100420000E94A50081E10E9493008FE295E7019769
:10043000F1F700C0000089E20E9493000895CF9375
:10044000C82F892F0E94A5008C2F0E94A500CF9154
:100450000895EF92FF920F931F93CF93DF938C0138
:10046000209100203091012021503109409102203B
:10047000509103204150510960E070E080E090E02D
:100480000E94B8008091022090910320892BC9F42A
:1004900021C0C0E0D0E0C8010E941F022196209137
:1004A000002030910120C217D307A8F38FEFE81A7C
:1004B000F80A8091022090910320E816F90618F0BE
:1004C00009C0E12CF12C8091002090910120892B12
:1004D00001F7ECCFDF91CF911F910F91FF90EF903B
:1004E0000895CF93C82F86E30E9493008C2F8370CA
:1004F0008130B1F028F0823019F1833089F13FC0AA
:1005000088E40E94930080EF90E080930220909313
:10051000032080E491E080930020909301202FC07D
:1005200088E20E94930080E491E0809302209093FF
:10053000032080EF90E080930020909301201FC063
:1005400088E80E94930080EF90E0809302209093CF
:10055000032080E491E080930020909301200FC05D
:1005600088EE0E94930080E491E0809302209093B3
:10057000032080EF90E08093002090930120CF91A2
:1005800008950E94100180E098EF0E94290282E005
:100590000E94710285EE9FEA0E9429028FE190E09D
:1005A0000E94290280EE9FEF0E94290288E196ECCA
:0A05B0000E942902EFCFF894FFCF5C
:0405BA004001F0000C
:00000001FF
